2016-10-04 10:46:29.245261 54:27:1e:47:70:96 > 01:00:5e:00:00:fd, ethertype IPv4 (0x0800), length 82: (tos 0x0, ttl 1, id 15896, offset 0, flags [none], proto UDP (17), length 68) 10.16.172.137.54118 > 224.0.0.253.3544: UDP, length 40
	0x0000:  9c00 0000 0100 0000 0100 0000 656e 3000  ............en0.
	0x0010:  0000 0000 0000 0000 0000 0000 0000 0000  ................
	0x0020:  0000 0000 0100 0000 0200 0000 0e00 0000  ................
	0x0030:  0000 0000 ffff ffff 0000 0000 0000 0000  ................
	0x0040:  0000 0000 0000 0000 0000 0000 0000 0000  ................
	0x0050:  0600 0000 ffff ffff 0000 0000 0000 0000  ................
	0x0060:  0000 0000 0000 0000 0000 0000 0000 0000  ................
	0x0070:  0000 0000 0000 0000 0000 0000 0000 0000  ................
	0x0080:  0000 0000 0000 0000 0000 0000 0000 0000  ................
	0x0090:  0000 0000 0000 0000 0000 0000 0100 5e00  ..............^.
	0x00a0:  00fd 5427 1e47 7096 0800 4500 0044 3e18  ..T'.Gp...E..D>.
	0x00b0:  0000 0111 e3fa 0a10 ac89 e000 00fd d366  ...............f
	0x00c0:  0dd8 0030 e12f 6000 0000 0000 3b15 2001  ...0./`.....;...
	0x00d0:  0000 9d38 6ab8 341d 8fea 7d1e a256 ff02  ...8j.4...}..V..
	0x00e0:  0000 0000 0000 0000 0000 0000 0001       ..............
2016-10-04 10:46:29.245305 e0:06:e6:a2:67:db > 01:00:5e:00:00:fd, ethertype IPv4 (0x0800), length 82: (tos 0x0, ttl 1, id 3737, offset 0, flags [none], proto UDP (17), length 68) 10.16.172.229.49817 > 224.0.0.253.3544: UDP, length 40
	0x0000:  9c00 0000 0100 0000 0100 0000 656e 3000  ............en0.
	0x0010:  0000 0000 0000 0000 0000 0000 0000 0000  ................
	0x0020:  0000 0000 0100 0000 0200 0000 0e00 0000  ................
	0x0030:  0000 0000 ffff ffff 0000 0000 0000 0000  ................
	0x0040:  0000 0000 0000 0000 0000 0000 0000 0000  ................
	0x0050:  0600 0000 ffff ffff 0000 0000 0000 0000  ................
	0x0060:  0000 0000 0000 0000 0000 0000 0000 0000  ................
	0x0070:  0000 0000 0000 0000 0000 0000 0000 0000  ................
	0x0080:  0000 0000 0000 0000 0000 0000 0000 0000  ................
	0x0090:  0000 0000 0000 0000 0000 0000 0100 5e00  ..............^.
	0x00a0:  00fd e006 e6a2 67db 0800 4500 0044 0e99  ......g...E..D..
	0x00b0:  0000 0111 131e 0a10 ace5 e000 00fd c299  ................
	0x00c0:  0dd8 0030 8ee8 6000 0000 0000 3b15 2001  ...0..`.....;...
	0x00d0:  0000 9d38 6ab8 246b 0251 7d1e a25a ff02  ...8j.$k.Q}..Z..
	0x00e0:  0000 0000 0000 0000 0000 0000 0001       ..............

